S00E00004375727665582E73726563B9
S1130000FDC000001CC100001AC1000018C100009E
S113001016C1000014C1000012C1000010C100008C
S11300200EC100000CC100000AC1000008C100009C
S113003006C1000004C1000002C1000000C10000AC
S1130040FEC00000FCC00000FAC00000F8C00000C0
S1130050F6C00000F4C00000F2C00000F0C00000D0
S1130060EEC00000ECC00000EAC00000E8C00000E0
S1130070E6C00000E4C00000E2C00000E0C00000F0
S1130080DEC00000DCC00000DAC00000D8C0000000
S1130090D6C00000D4C00000D2C00000D0C0000010
S11300A0CEC00000CCC00000CAC00000C8C0000020
S11300B0C6C00000C4C00000C2C00000C0C0000030
S11300C0BEC00000BCC00000BAC00000B8C0000040
S11300D0B6C00000B4C00000B2C00000B0C0000050
S11300E0AEC00000ACC00000AAC00000A8C0000060
S11300F0A6C00000A4C00000A2C00000A0C0000070
S11301009EC000009CC000009AC0000098C000007F
S113011096C0000094C0000092C0000090C000008F
S11301208EC000008CC000008AC0000088C000009F
S113013086C0000084C0000082C0000080C00000AF
S11301407EC000007CC000007AC0000078C00000BF
S113015076C0000074C0000072C0000070C00000CF
S11301606EC000006CC000006AC0000068C00000DF
S113017066C0000064C0000062C0000060C00000EF
S11301805EC000005CC000005AC0000058C00000FF
S113019056C0000054C0000052C0000050C000000F
S11301A04EC000004CC000004AC0000048C000001F
S11301B046C0000044C0000042C0000040C000002F
S11301C03EC000003CC000003AC0000038C000003F
S11301D036C0000034C0000032C0000030C000004F
S11301E02EC000002CC000002AC0000028C000005F
S11301F026C0000024C0000022C0000011241FBE3D
S1130200CFEFCDBFDFE9DEBF00E00CBF10E2A0E01E
S1130210B0E2EEE2F9E600E00BBF02C007900D92F7
S1130220A036B107D9F720E2A0E6B0E201C01D92E2
S1130230A03EB207E1F70E944A330C949534E0CE15
S1130240AF92BF92CF92DF92EF92FF920F931F93E0
S1130250CF93DF93FC01DB01C0E0D0E0208131814A
S1130260428153816481758186819781AC90119616
S1130270BC9011971296CC9012971396DC9013971A
S11302801496EC9014971596FC90159716960C916D
S1130290169717961C9117970E9474342083318304
S11302A04283538364837583868397832085318552
S11302B04285538564857585868597851896AC90A7
S11302C018971996BC9019971A96CC901A971B9662
S11302D0DC901B971C96EC901C971D96FC901D9728
S11302E01E960C911E971F961C911F970E947434A2
S11302F020873187428753876487758786879787E6
S1130300229670965096CA30D10509F0A7CFDF9196
S1130310CF911F910F91FF90EF90DF90CF90BF90FE
S1130320AF900895AF92BF92CF92DF92EF92FF9277
S11303300F931F93CF93DF93DB01FC01C0E0D0E068
S11303402C9111963C91119712964C9112971396F9
S11303505C91139714966C91149715967C9115974C
S113036016968C91169717969C9117971896A080BD
S1130370B180C280D380E480F580068117810E9419
S11303807D342083318342835383648375838683DE
S1130390978338962196CA30D10591F6DF91CF9193
S11303A01F910F91FF90EF90DF90CF90BF90AF908F
S11303B008952F923F924F925F926F927F928F9205
S11303C09F92AF92BF92CF92DF92EF92FF920F93E0
S11303D01F93CF93DF93CDB7DEB7CD55D109CDBFF2
S11303E0DEBF8F83988769837A834D835E83DB01C5
S11303F06D917D918D919C91FA0120813181428191
S113040053810E940934AF81B8852C9311963C9393
S1130410119712964C93129713965C931397149614
S11304206C93149715967C93159716968C93169740
S113043017969C93E981FA8160817181828193810D
S1130440AD81BE8118962D913D914D915C911B9784
S113045080849184A284B384CD90DD90ED90FC904F
S11304600E94093419012A013B018D879987C5012E
S1130470B401A70196010E94093459016A017B0164
S11304808C019101A201B3018D8599850E94743478
S1130490EF81F88520873187428753876487758782
S11304A086879787A981BA8118966D917D918D91E0
S11304B09C911B974D905D906D907C9013974D8A05
S11304C05E8A6F8A788EED81FE81408851886288C9
S11304D073885096AD90BD90CD90DC905397A98EC3
S11304E0BA8ECB8EDC8EA080B180C280D380A98AE4
S11304F0BA8ACB8ADC8A22E030E040E050E00E94F5
S11305000934ED81FE81E084F1840285138557016D
S11305106801DD0CAA08BA2C6501A986BA86CB86C7
S1130520DC8657016801E984FE2C0E2D1E2D0E94E5
S1130530B833190149A35D8F4B0189879D876D8964
S11305407E898F89988DA30192010E9409345901F3
S11305506A017B018C01910149A15D8DB4018985FA
S11305609D850E94743429013A014B011C01698D57
S11305707A8D8B8D9C8D29893A894B895C890E945F
S1130580093459016A017B018C019201A301B40170
S1130590C1010E947434AF81B88550962C93509752
S11305A051963C93519752964C93529753965C9321
S11305B0539754966C93549755967C9355975696A7
S11305C08C93569757969C93E981FA81608571853F
S11305D082859385AD81BE8150962D913D914D913B
S11305E05C91539780889188A288B3881896CD909F
S11305F0DD90ED90FC901B97408051806280738069
S113060049865A866B867C86AD81BE8158964D900C
S11306105D906D907C905B974D8E5E8E6F8E78A210
S1130620408C518C628C738C4D8A5E8A6F8A788E72
S1130630AD81BE814D905D906D907C90498E5A8EB7
S11306406B8E7C8E0E940934422E732E142F052F3C
S1130650362E272E682E592EC501B401A701960106
S11306600E94093459016A017B01FC01242D372DB4
S1130670412F502F632D722D862D952D8F010E94B1
S1130680743419014A01462E772E682E592E698535
S11306907A858B859C852D8D3E8D4F8D58A10E942A
S11306A0093459016A017B018C019101A401642D73
S11306B0772D862D952D0E94743429013A014B0122
S11306C01C016D897E898F89988D298D3A8D4B8D7A
S11306D05C8D0E94093459016A017B018C019201ED
S11306E0A301B401C1010E947434EF81F885208F05
S11306F0318F428F538F648F758F868F978FA98127
S1130700BA8150966D917D918D919C915397ED8115
S1130710FE81208931894289538918964D905D90D4
S11307206D907C901B9749865A866B867C86408C9C
S1130730518C628C738C58968D909D90AD90BC902A
S11307405B97C084D184E284F384CDAADEAAEFAAA5
S1130750F8AEA981BA81CD90DD90ED90FC90CD8A60
S1130760DE8AEF8AF88EC0A0D1A0E2A0F3A0C98EE1
S1130770DA8EEB8EFC8EA981BA819096CD90DD90B5
S1130780ED90FC909397C98ADA8AEB8AFC8AC08040
S1130790D180E280F380CD86DE86EF86F88A0E94DF
S11307A00934322E232E4DA359A76D8F79A38DA71B
S11307B099AB69857A858B859C85A30192010E94FA
S11307C0093429AF3987142F052F762E672E582E1A
S11307D0492EC501B4012DA93EA94FA958AD0E94C7
S11307E0093459016A017B01FC0129AD3985412F86
S11307F0502F672D762D852D942D8F010E947434F2
S113080001E00E943D3459016A017B018C01232DD2
S1130810322D4DA159A56D8D79A18DA599A90E945F
S1130820743439014A011B01582E492E6D897E8981
S11308308F89988D298D3A8D4B8D5C8D0E9409345A
S113084059016A017B018C019301A401B101852D39
S1130850942D0E94743429013A014B011C016989C9
S11308607A898B899C892D853E854F8558890E947C
S1130870093459016A017B018C019201A301B4017D
S1130880C1010E947434EF81F88520A331A342A3EF
S113089053A364A375A386A397A3A981BA81509691
S11308A06D917D918D919C915397ED81FE81208D69
S11308B0318D428D538D58968D909D90AD90BC9006
S11308C05B97C088D188E288F38818964D905D9034
S11308D06D907C901B9749865A866B867C8640A0D7
S11308E051A062A073A04DA65EA66FA678AAA981A6
S11308F0BA8190964D905D906D907C9093974D8ABF
S11309005E8A6F8A788E4084518462847384498EAF
S11309105A8E6B8E7C8EA981BA814D905D906D90BC
S11309207C90498A5A8A6B8A7C8A40A451A462A426
S113093073A44D865E866F86788AA981BA8198965B
S11309404D905D906D907C909B974DA25EA26FA29E
S113095078A6408051806280738049A65AA66BA60F
S11309607CA60E940934422E732E142F052F362E96
S1130970272E682E592EC501B401A70196010E94A5
S1130980093459016A017B01FC01242D372D412FC3
S1130990502F632D722D862D952D8F010E94743456
S11309A019014A018B013C0169857A858B859C85F7
S11309B02DA53EA54FA558A90E94093459016A01E5
S11309C07B01FC019101A401B801C3018F010E94C4
S11309D0743439014A018B012C016D897E898F8918
S11309E0988D298D3A8D4B8D5C8D0E940934590167
S11309F06A017B01FC019301A401B801C2018F01CA
S1130A000E94743439014A011B01582E492E698908
S1130A107A898B899C892D853E854F8558890E94CA
S1130A20093459016A017B018C019301A401B101CC
S1130A30852D942D0E94743429013A014B011C0127
S1130A406DA17EA18FA198A529A53AA54BA55CA56A
S1130A500E94093459016A017B018C019201A301AE
S1130A60B401C1010E947434EF81F88520A731A735
S1130A7042A753A764A775A786A797A7A981BA8198
S1130A8058966D917D918D919C915B97ED81FE813E
S1130A90208D318D428D538D18968D909D90AD9003
S1130AA0BC901B97C0A4D1A4E2A4F3A498964D9043
S1130AB05D906D907C909B9749865A866B867C8668
S1130AC040845184628473844DAA5EAA6FAA78AE6E
S1130AD0A981BA8150964D905D906D907C9053970A
S1130AE04D8A5E8A6F8A788E40A051A062A073A05E
S1130AF0498E5A8E6B8E7C8EA981BA8190964D90C8
S1130B005D906D907C909397498A5A8A6B8A7C8A0F
S1130B1040885188628873884D865E866F86788A9D
S1130B20A981BA814D905D906D907C904DA25EA29A
S1130B306FA278A640A851A862A873A849A65AA68D
S1130B406BA67CA6A981BA81D0964D905D906D90DC
S1130B507C90D3974D8E5E8E6F8E78A240805180AC
S1130B606280738049A25AA26BA27CA20E940934BB
S1130B70422E732E142F052F362E272E682E592E13
S1130B80C501B401A70196010E94093459016A0103
S1130B907B01FC01242D372D412F502F632D722D05
S1130BA0862D952D8F010E94743419014A018B0101
S1130BB03C0169857A858B859C852DA93EA94FA921
S1130BC058AD0E94093459016A017B01FC0191016D
S1130BD0A401B801C3018F010E94743401E00E9492
S1130BE03D3439014A018B012C016D897E898F893D
S1130BF0988D298D3A8D4B8D5C8D0E940934590155
S1130C006A017B01FC019301A401B801C2018F01B7
S1130C100E94743439014A018B012C0169897A8953
S1130C208B899C892D853E854F8558890E9409347E
S1130C3059016A017B01FC019301A401B801C201BD
S1130C408F010E94743439014A011B01582E492E28
S1130C506DA17EA18FA198A529A53AA54BA55CA558
S1130C600E94093459016A017B018C019301A4019A
S1130C70B101852D942D0E94743429013A014B0150
S1130C801C016D8D7E8D8F8D98A129A13AA14BA158
S1130C905CA10E94093459016A017B018C01920113
S1130CA0A301B401C1010E947434EF81F88520AB23
S1130CB031AB42AB53AB64AB75AB86AB97ABA9819D
S1130CC0BA8158966D917D918D919C915B97ED8140
S1130CD0FE8120A131A142A153A190968D909D90B7
S1130CE0AD90BC909397C08CD18CE28CF38C5096D1
S1130CF04D905D906D907C90539749865A866B8693
S1130D007C8640A451A462A473A421964CAE5DAE2B
S1130D106EAE7FAE2197A981BA8198964D905D9071
S1130D206D907C909B974D8A5E8A6F8A788E4088FE
S1130D30518862887388498E5A8E6B8E7C8EA98105
S1130D40BA8118964D905D906D907C901B97498A5E
S1130D505A8A6B8A7C8A40A851A862A873A84D86D7
S1130D605E866F86788AA981BA81D0964D905D900F
S1130D706D907C90D3974DA25EA26FA278A640841A
S1130D8051846284738449A65AA66BA67CA6A98161
S1130D90BA814D905D906D907C904D8E5E8E6F8E7D
S1130DA078A240AC51AC62AC73AC49A25AA26BA21B
S1130DB07CA2A981BA81D8964D905D906D907C906B
S1130DC0DB974DA65EA66FA678AA4080518062800C
S1130DD0738049AA5AAA6BAA7CAA0E940934422E9B
S1130DE0732E142F052F362E272E682E592EC5014B
S1130DF0B401A70196010E94093459016A017B01DB
S1130E00FC01242D372D412F502F632D722D862D5B
S1130E10952D8F010E94743419014A018B013C0104
S1130E2069857A858B859C8521962CAD3DAD4EAD2B
S1130E305FAD21970E94093459016A017B01FC01CD
S1130E409101A401B801C3018F010E9474343901D6
S1130E504A018B012C016D897E898F89988D298D9A
S1130E603A8D4B8D5C8D0E94093459016A017B01D6
S1130E70FC019301A401B801C2018F010E947434E2
S1130E8039014A018B012C0169897A898B899C89F2
S1130E902D853E854F8558890E94093459016A0180
S1130EA07B01FC019301A401B801C2018F010E94DE
S1130EB0743439014A018B012C016DA17EA18FA1EB
S1130EC098A529A53AA54BA55CA50E94093459010A
S1130ED06A017B01FC019301A401B801C2018F01E5
S1130EE00E94743439014A011B01582E492E6D8D1C
S1130EF07E8D8F8D98A129A13AA14BA15CA10E945E
S1130F00093459016A017B018C019301A401B101E7
S1130F10852D942D0E94743429013A014B011C0142
S1130F206DA57EA58FA598A929A93AA94BA95CA965
S1130F300E94093459016A017B018C019201A301C9
S1130F40B401C1010E947434EF81F88520AF31AF40
S1130F5042AF53AF64AF75AF86AF97AFA981BA8183
S1130F6090966D917D918D919C919397ED81FE81E9
S1130F7020A131A142A153A158964D905D906D904E
S1130F807C905B97498E5A8E6B8E7C8E40A451A4C4
S1130F9062A473A498968D909D90AD90BC909B97FD
S1130FA0C08CD18CE28CF38C6D96CCAEDDAEEEAE03
S1130FB0FFAE6D97A981BA811896CD90DD90ED9022
S1130FC0FC901B97C98ADA8AEB8AFC8AC0ACD1AC44
S1130FD0E2ACF3ACCD86DE86EF86F88AA981BA81CD
S1130FE0D896CD90DD90ED90FC90DB97CDA2DEA25B
S1130FF0EFA2F8A6C084D184E284F384C9A6DAA659
S1131000EBA6FCA6A981BA815096CD90DD90ED9017
S1131010FC905397CD8EDE8EEF8EF8A2C0A8D1A897
S1131020E2A8F3A8C9A2DAA2EBA2FCA2A981BA8120
S1131030D096CD90DD90ED90FC90D397CDA6DEA612
S1131040EFA6F8AAC088D188E288F388C9AADAAAE8
S1131050EBAAFCAAA981BA81CD90DD90ED90FC9019
S1131060CDAADEAAEFAAF8AEE05CFF4FE987FA87C3
S1131070C080D180E280F380C9AEDAAEEBAEFCAEC4
S1131080E981FA81E05CFF4FED8BFE8BC080D1805B
S1131090E280F3802196CCAEDDAEEEAEFFAE2197BA
S11310A0AD81BE81CD90DD90ED90FC902596CCAEC7
S11310B0DDAEEEAEFFAE25972F803884B0E42B0E64
S11310C0311C0E94093426962FAF26972A963FAFEB
S11310D02A972E964FAF2E9762965FAF62976696C9
S11310E06FAF669767967FAF679768968FAF68977D
S11310F069969FAF6997698D7A8D8B8D9C8DA301BD
S113110092010E9409346E962FAF6E97398F142F77
S1131110052F762E672E582E492EC501B4016D96E3
S11311202CAD3DAD4EAD5FAD6D970E9409345901B4
S11311306A017B01FC016E962FAD6E97398D412FAC
S1131140502F672D762D852D942D8F010E94743498
S113115039014A018B012C0169897A898B899C891F
S11311602D853E854F8558890E94093459016A01AD
S11311707B01FC019301A401B801C2018F010E940B
S1131180743439014A018B012C016DA17EA18FA118
S113119098A529A53AA54BA55CA50E940934590137
S11311A06A017B01FC019301A401B801C2018F0112
S11311B00E94743401E00E943D3459016A017B01AC
S11311C08C0126962FAD26972A963FAD2A972E9608
S11311D04FAD2E9762965FAD629766966FAD669738
S11311E067967FAD679768968FAD689769969FAD50
S11311F069970E94743439014A018B012C016D8D69
S11312007E8D8F8D98A129A13AA14BA15CA10E944A
S1131210093459016A017B01FC019301A401B8015D
S1131220C2018F010E94743439014A018B012C01DF
S11312306DA57EA58FA598A929A93AA94BA95CA952
S11312400E94093459016A017B01FC019301A40144
S1131250B801C2018F010E94743439014A018B0123
S11312602C016DA97EA98FA998AD29AD3AAD4BADDE
S11312705CAD0E94093459016A017B01FC019301B0
S1131280A401B801C2018F010E94743429013A01FA
S11312904B01898B9D8721966CAD7DAD8EAD9FAD45
S11312A0219725962CAD3DAD4EAD5FAD25970E949F
S11312B0093459016A017B018C019201A301B40133
S11312C089899D850E947434F1012083318342838E
S11312D053836483758386839783A981BA819096A7
S11312E06D917D918D919C919397ED81FE8120A5C7
S11312F031A542A553A598968D909D90AD90BC9034
S11313009B97C0A0D1A0E2A0F3A058964D905D9009
S11313106D907C905B974D865E866F86788A40A838
S113132051A862A873A86D964CAE5DAE6EAE7FAE4A
S11313306D97A981BA81D0964D905D906D907C9007
S1131340D3974DA25EA26FA278A6408C518C628C7A
S1131350738C49A65AA66BA67CA6A981BA8150961D
S11313604D905D906D907C9053974D8E5E8E6F8EF8
S113137078A240AC51AC62AC73AC49A25AA26BA245
S11313807CA2A981BA81D8964D905D906D907C9095
S1131390DB974DA65EA66FA678AA4088518862881E
S11313A0738849AA5AAA6BAA7CAAA981BA811896F9
S11313B04D905D906D907C901B974DAA5EAA6FAA8C
S11313C078AEA985BA854D905D906D907C9049AEBC
S11313D05AAE6BAE7CAEAD89BE894D905D906D907A
S11313E07C9021964CAE5DAE6EAE7FAE219740846C
S11313F051846284738425964CAE5DAE6EAE7FAE2E
S11314002597A981BA814D905D906D907C90299625
S11314104CAE5DAE6EAE7FAE2997E85BFF4FE98FB1
S1131420FA8F40805180628073802D964CAE5DAE01
S11314306EAE7FAE2D97E981FA81E85BFF4FE98BB1
S1131440FA8B408051806280738061964CAE5DAEB1
S11314506EAE7FAE6197AD81BE814D905D906D9013
S11314607C9065964CAE5DAE6EAE7FAE65972F8078
S11314703884B8E42B0E311C0E9409346E962FAFC9
S11314806E97732E142F052F662E572E482E6996AD
S11314909FAF6997C501B401A70196010E94093461
S11314A059016A017B01FC016E962FAD6E97372DB1
S11314B0412F502F662D752D842D69969FAD699708
S11314C08F010E947434722E632E4A018B012C0109
S11314D06D857E858F8598896D962CAD3DAD4EAD1D
S11314E05FAD6D970E94093459016A017B01FC01CB
S11314F0272D362DA401B801C2018F010E94743436
S113150039014A018B012C016DA17EA18FA198A5FF
S113151029A53AA54BA55CA50E94093459016A0185
S11315207B01FC019301A401B801C2018F010E9457
S1131530743439014A018B012C016D8D7E8D8F8DA0
S113154098A129A13AA14BA15CA10E940934590197
S11315506A017B01FC019301A401B801C2018F015E
S11315600E94743439014A018B012C016DA57EA5BA
S11315708FA598A929A93AA94BA95CA90E94093465
S113158059016A017B01FC019301A401B801C20164
S11315908F010E94743439014A018B012C016DA919
S11315A07EA98FA998AD29AD3AAD4BAD5CAD0E9433
S11315B0093459016A017B01FC019301A401B801BA
S11315C0C2018F010E94743439014A018B012C013C
S11315D021966CAD7DAD8EAD9FAD219725962CAD3A
S11315E03DAD4EAD5FAD25970E94093459016A01A6
S11315F07B01FC019301A401B801C2018F010E9487
S1131600743439014A018B012C0129966CAD7DADEE
S11316108EAD9FAD29972D962CAD3DAD4EAD5FADF2
S11316202D970E94093459016A017B01FC01930141
S1131630A401B801C2018F010E94743429013A0146
S11316404B018D8F9D8761966CAD7DAD8EAD9FAD49
S1131650619765962CAD3DAD4EAD5FAD65970E942B
S1131660093459016A017B018C019201A301B4017F
S11316708D8D9D850E947434F101208331834283D2
S113168053836483758386839783A981BA819896EB
S11316906D917D918D919C919B97ED81FE8120A50B
S11316A031A542A553A558968D909D90AD90BC90C0
S11316B05B97C0ACD1ACE2ACF3ACD8964D905D90E6
S11316C06D907C90DB974D865E866F86788A408C21
S11316D0518C628C738C61964CAE5DAE6EAE7FAEF7
S11316E06197A981BA8118964D905D906D907C9018
S11316F01B974DA25EA26FA278A6A98DBA8D4D90BC
S11317005D906D907C90498E5A8E6B8E7C8EA989EB
S1131710BA894D905D906D907C90498A5A8A6B8A03
S11317207C8A408451846284738449A65AA66BA639
S11317307CA6A981BA8190964D905D906D907C9025
S113174093974D8E5E8E6F8E78A240A851A862A8A2
S113175073A849A25AA26BA27CA2A981BA81D0968D
S11317604D905D906D907C90D3974DA65EA66FA62C
S113177078AA40A051A062A073A049AA5AAA6BAA51
S11317807CAAA981BA8150964D905D906D907C9011
S113179053974DAA5EAA6FAA78AEA985BA854D90D3
S11317A05D906D907C9049865A866B867C86AD8967
S11317B0BE894D905D906D907C904D8A5E8A6F8A53
S11317C0788E408851886288738849AE5AAE6BAE71
S11317D07CAE2F803884B0E52B0E311C0E94093476
S11317E062962FAF6297732E142F052F662E572EF5
S11317F0482E2A969FAF2A97C501B401A7019601E6
S11318000E94093459016A017B01FC0162962FADE3
S11318106297372D412F502F662D752D842D2A96D2
S11318209FAD2A978F010E947434722E632E4A0151
S11318308B012C016D857E858F85988961962CADF1
S11318403DAD4EAD5FAD61970E94093459016A0107
S11318507B01FC01272D362DA401B801C2018F01A3
S11318600E94743439014A018B012C016DA17EA1BF
S11318708FA198A5298D3A8D4B8D5C8D0E940934DA
S113188059016A017B01FC019301A401B801C20161
S11318908F010E94743439014A018B012C0169893A
S11318A07A898B899C8929A53AA54BA55CA50E94B8
S11318B0093459016A017B01FC019301A401B801B7
S11318C0C2018F010E94743401E00E943D34390149
S11318D04A018B012C016D8D7E8D8F8D98A129A1DC
S11318E03AA14BA15CA10E94093459016A017B0110
S11318F0FC019301A401B801C2018F010E94743458
S113190039014A018B012C016DA57EA58FA598A9EB
S113191029A93AA94BA95CA90E94093459016A0171
S11319207B01FC019301A401B801C2018F010E9453
S1131930743439014A018B012C016DA97EA98FA948
S113194098AD29853A854B855C850E9409345901F7
S11319506A017B01FC019301A401B801C2018F015A
S11319600E94743429013A014B018D8799876D894E
S11319707E898F89988D29AD3AAD4BAD5CAD0E94BF
S1131980093459016A017B018C019201A301B4015C
S11319908D8599850E947434F101208331834283BB
S11319A053836483758386839783A981BA819896C8
S11319B06D917D918D919C919B97ED81FE8120A9E4
S11319C031A942A953A9D0968D909D90AD90BC9019
S11319D0D397C0A4D1A4E2A4F3A490964D905D90B3
S11319E06D907C9093974D865E866F86788A40AC26
S11319F051AC62AC73AC6D964CAE5DAE6EAE7FAE68
S1131A006D97A981BA81D8964D905D906D907C9028
S1131A10DB974DA25EA26FA278A640A051A062A05F
S1131A2073A049A65AA66BA67CA6A981BA8158962A
S1131A304D905D906D907C905B974D8E5E8E6F8E19
S1131A4078A2E05CFF4FE987FA874080518062808A
S1131A50738049A25AA26BA27CA2E981FA81E05C5C
S1131A60FF4FED8BFE8B40805180628073804DA6CA
S1131A705EA66FA678AAAD81BE8158964D905D9002
S1131A806D907C905B9749AA5AAA6BAA7CAAA981FB
S1131A90BA8150964D905D906D907C9053974DAA6D
S1131AA05EAA6FAA78AEED81FE81E85BFF4FE98FF5
S1131AB0FA8F408051806280738049AE5AAE6BAE1B
S1131AC07CAEE981FA81E85BFF4FE98BFA8B4080B9
S1131AD051806280738021964CAE5DAE6EAE7FAE57
S1131AE02197AD81BE8150964D905D906D907C9014
S1131AF0539725964CAE5DAE6EAE7FAE25972F8084
S1131B003884B8E52B0E311C0E94093466962FAF39
S1131B106697732E142F052F662E572E482E629625
S1131B209FAF6297C501B401A70196010E940934D1
S1131B3059016A017B01FC0166962FAD6697372D2A
S1131B40412F502F662D752D842D62969FAD62977F
S1131B508F010E947434722E632E4A018B012C0172
S1131B606D857E858F8598896D962CAD3DAD4EAD86
S1131B705FAD6D970E94093459016A017B01FC0134
S1131B80272D362DA401B801C2018F010E9474349F
S1131B9039014A018B012C016DA17EA18FA198A569
S1131BA029A53AA54BA55CA50E94093459016A01EF
S1131BB07B01FC019301A401B801C2018F010E94C1
S1131BC0743439014A018B012C016D8D7E8D8F8D0A
S1131BD098A129A13AA14BA15CA10E940934590101
S1131BE06A017B01FC019301A401B801C2018F01C8
S1131BF00E94743439014A018B012C016DA57EA524
S1131C008FA598A929A93AA94BA95CA90E940934CE
S1131C1059016A017B01FC019301A401B801C201CD
S1131C208F010E94743439014A018B012C016DA982
S1131C307EA98FA998AD29AD3AAD4BAD5CAD0E949C
S1131C40093459016A017B01FC019301A401B80123
S1131C50C2018F010E94743429013A014B018D8F16
S1131C609D8721966CAD7DAD8EAD9FAD2197259658
S1131C702CAD3DAD4EAD5FAD25970E9409345901A1
S1131C806A017B018C019201A301B4018D8D9D85B4
S1131C900E947434F101208331834283538364832B
S1131CA0758386839783A981BA81D0966D917D913E
S1131CB08D919C91D397ED81FE8120A931A942A9F0
S1131CC053A998964D905D906D907C909B974D860E
S1131CD05E866F86788A80AC91ACA2ACB3ACD896A1
S1131CE04D905D906D907C90DB976D964CAE5DAEA3
S1131CF06EAE7FAE6D9740A451A462A473A45896AF
S1131D00CD90DD90ED90FC905B97CDA2DEA2EFA28A
S1131D10F8A6A98DBA8DCD90DD90ED90FC90C9A662
S1131D20DAA6EBA6FCA6A989BA89CD90DD90ED9040
S1131D30FC90CD8EDE8EEF8EF8A2C08CD18CE28C1E
S1131D40F38CC9A2DAA2EBA2FCA2A981BA81909673
S1131D50CD90DD90ED90FC909397CDA6DEA6EFA6F6
S1131D60F8AAA985BA85CD90DD90ED90FC90C9AA1A
S1131D70DAAAEBAAFCAAAD89BE89CD90DD90ED90DC
S1131D80FC90CDAADEAAEFAAF8AEC0A0D1A0E2A032
S1131D90F3A0C9AEDAAEEBAEFCAE2F803884B0E669
S1131DA02B0E311C0E9409342DAF22963FAF22978F
S1131DB026964FAF26972A965FAF2A972E966FAF37
S1131DC02E9762967FAF629766968FAF66976796F7
S1131DD09FAF67976D857E858F859889A50194014E
S1131DE00E9409346E962FAF6E9769963FAF69973C
S1131DF0142F052F962E872E8D8768969FAF689790
S1131E006D966CAD7DAD8EAD9FAD6D97A3019201C6
S1131E100E94093459016A017B01FC016E962FADC1
S1131E206E9769963FAD6997412F502F692D782D94
S1131E308D8568969FAD68978F010E94743439012F
S1131E404A018B012C016DA17EA18FA198A529A522
S1131E503AA54BA55CA50E94093459016A017B018E
S1131E60FC019301A401B801C2018F010E947434E2
S1131E7039014A018B012C016D8D7E8D8F8D98A1C6
S1131E8029A13AA14BA15CA10E94093459016A011C
S1131E907B01FC019301A401B801C2018F010E94DE
S1131EA0743401E00E943D3459016A017B018C01C4
S1131EB02DAD22963FAD229726964FAD26972A96B2
S1131EC05FAD2A972E966FAD2E9762967FAD62977F
S1131ED066968FAD669767969FAD67970E94743438
S1131EE039014A018B012C016DA57EA58FA598A906
S1131EF029A93AA94BA95CA90E94093459016A018C
S1131F007B01FC019301A401B801C2018F010E946D
S1131F10743429013A014B018D8F9D876DA97EA9E7
S1131F208FA998AD29AD3AAD4BAD5CAD0E94093493
S1131F3059016A017B018C019201A301B4018D8DC9
S1131F409D850E947434F10120833183428353833D
S1131F506483758386839783A981BA81D0966D91B2
S1131F607D918D919C91D397ED81FE8120AD31AD12
S1131F7042AD53ADD8968D909D90AD90BC90DB97BB
S1131F80C0A8D1A8E2A8F3A898964D905D906D9052
S1131F907C909B974D865E866F86788AA985BA85E4
S1131FA04D905D906D907C904DAA5EAA6FAA78AE1C
S1131FB0AD89BE894D905D906D907C9049865A861E
S1131FC06B867C8640A451A462A473A44D8A5E8A65
S1131FD06F8A788EA981BA8190964D905D906D90AC
S1131FE07C9093974DA25EA26FA278A6A98DBA8D1C
S1131FF04D905D906D907C90498E5A8E6B8E7C8E48
S1132000A989BA894D905D906D907C90498A5A8ACD
S11320106B8A7C8A40A051A062A073A049A65AA6EC
S11320206BA67CA62F803884B8E62B0E311C0E9448
S1132030093429AF732E142F052F662E572E482EE0
S113204099ABC501B401A70196010E940934590155
S11320506A017B01FC0129AD372D412F502F662DDC
S1132060752D842D99A98F010E947434722E632ECC
S11320704A018B012C016D857E858F8598892DA958
S11320803EA94FA958AD0E94093459016A017B0148
S1132090FC01272D362DA401B801C2018F010E9435
S11320A0743439014A018B012C0169857A858B8549
S11320B09C852D893E894F89588D0E940934590188
S11320C06A017B01FC019301A401B801C2018F01E3
S11320D00E94743439014A018B012C016DA17EA147
S11320E08FA198A5298D3A8D4B8D5C8D0E94093462
S11320F059016A017B01FC019301A401B801C201E9
S11321008F010E94743429013A014B018D8799870C
S113211069897A898B899C8929A53AA54BA55CA5EF
S11321200E94093459016A017B018C019201A301C7
S1132130B4018D8599850E947434F1012083318323
S1132140428353836483758386839783A981BA8189
S1132150D8966D917D918D919C91DB97ED81FE8157
S113216020AD31AD42AD53AD98968D909D90AD901C
S1132170BC909B97E85BFF4FE987FA87C080D180CA
S1132180E280F380A85BBF4FAD8BBE8B4D905D901A
S11321906D907C904D865E866F86788AAD81BE8117
S11321A098964D905D906D907C909B9721964CAE47
S11321B05DAE6EAE7FAE2197A981BA81D0964D9067
S11321C05D906D907C90D3974DA25EA26FA278A68D
S11321D0ED81FE81E05CFF4FE98FFA8F40805180F2
S11321E06280738049A65AA66BA67CA6E981FA810F
S11321F0E05CFF4FE98BFA8B4080518062807380F2
S11322004D8E5E8E6F8E78A2AD81BE81D0964D903C
S11322105D906D907C90D39749A25AA26BA27CA248
S1132220EF81F885E059FF4F2396EEAFFFAF239778
S11322300E940934422E732E142F052F362E272E7A
S1132240682E592EC501B401A70196010E940934D4
S113225059016A017B01FC01242D372D412F502F98
S1132260632D722D862D952D8F010E9474341901D2
S11322704A018B013C016D857E858F859889219665
S11322802CAD3DAD4EAD5FAD21970E94093459018F
S11322906A017B01FC019101A401B801C3018F0112
S11322A00E94743401E00E943D3439014A018B01DB
S11322B02C016DA17EA18FA198A529A53AA54BA5B6
S11322C05CA50E94093459016A017B01FC01930158
S11322D0A401B801C2018F010E94743429013A019A
S11322E04B011C016D8D7E8D8F8D98A129A13AA182
S11322F04BA15CA10E94093459016A017B018C0144
S11323009201A301B401C1010E9474342396AEADBD
S1132310BFAD23972C9311963C93119712964C932F
S1132320129713965C93139714966C9314971596BF
S11323307C93159716968C93169717969C93E98120
S1132340FA8160AD71AD82AD93ADA98DBA8D2D9139
S11323503D914D915C91E989FA8980809180A280B8
S1132360B380AD81BE81D896CD90DD90ED90FC9088
S1132370DB97A981BA81D0964D905D906D907C9049
S1132380D3974D865E866F86788AA985BA854D90E7
S11323905D906D907C904DAA5EAA6FAA78AEAD89CF
S11323A0BE894D905D906D907C904DA25EA26FA20F
S11323B078A6AD81BE81D0964D905D906D907C9055
S11323C0D39749A65AA66BA67CA6EF81F885E85850
S11323D0FF4FE9AFFAAF0E940934422E732E142F37
S11323E0052F362E272E682E592EC501B401A701BC
S11323F096010E94093459016A017B01FC01242DD4
S1132400372D412F502F632D722D862D952D8F0141
S11324100E94743419014A018B013C016D857E854B
S11324208F8598892DA93EA94FA958AD0E940934DA
S113243059016A017B01FC019101A401B801C301A6
S11324408F010E94743429013A014B011C016DA1D2
S11324507EA18FA198A529A53AA54BA55CA50E94AC
S1132460093459016A017B018C019201A301B40171
S1132470C1010E947434A9ADBAAD2C9311963C935A
S1132480119712964C93129713965C931397149684
S11324906C93149715967C93159716968C931697B0
S11324A017969C93E989FA8960817181828193816D
S11324B0A98DBA8D2D913D914D915C91A981BA81DF
S11324C0D8964D905D906D907C90DB9749825A82AE
S11324D06B827C82E985FA854080518062807380BA
S11324E0AD89BE898D909D90AD90BC90ED81FE81AB
S11324F0C0ACD1ACE2ACF3AC0F81188500581F4FCF
S11325000DAB1EAB0E9409342D833D874DA359A703
S11325106D8F79A38DA799AB69817A818B819C8119
S1132520A30192010E94093489011A012B013C0183
S1132530C501B401A70196010E94093459016A0139
S11325407B01F82FE92F9801A101B201C3010F2FDC
S11325501E2F0E94743401E00E943D3459016A0127
S11325607B018C012D813D854DA159A56D8D79A1EE
S11325708DA599A90E947434ADA9BEA92C93119676
S11325803C93119712964C93129713965C9313975E
S113259014966C93149715967C93159716968C93B2
S11325A0169717969C93E989FA89608171818281D3
S11325B09381A985BA852D913D914D915C91ED89C9
S11325C0FE8980809180A280B380A98DBA8DCD9040
S11325D0DD90ED90FC90EF81F885E857FF4FE9839B
S11325E0FA830E94093489011A012B013C01C501B7
S11325F0B401A70196010E94093459016A017B01C3
S1132600F82FE92F9801A101B201C3010F2F1E2F4A
S11326100E947434A981BA812C9311963C9311972A
S113262012964C93129713965C93139714966C938B
S1132630149715967C93159716968C931697179660
S11326409C93ED89FE8960817181828193818F8061
S11326509884F0E98F0E911C22E030E040E050E0D5
S11326600E940934F22FE32FA985BA850D911D919B
S11326702D913C9128013901770C4408542C3201E6
S113268058016901E42CF42C042D142D2F2F3E2F16
S11326900E94B833F40120833183428353836483DB
S11326A0758386839783C35ADF4FCDBFDEBFDF9127
S11326B0CF911F910F91FF90EF90DF90CF90BF903B
S11326C0AF909F908F907F906F905F904F903F90CE
S11326D02F9008952F923F924F925F926F927F9224
S11326E08F929F92AF92BF92CF92DF92EF92FF921E
S11326F00F931F93CF93DF93CDB7DEB72A97CDBF48
S1132700DEBFFC01DC01A057BF4F4C9011965C90DA
S1132710119712966C90129713967C9013971496B7
S11327208C90149715969C90159716968C911697E5
S11327308A8717969C9117979987A055B109AF83FB
S1132740B8879201A301B40104E00E943D34AC9027
S11327501196BC9011971296CC9012971396DC9018
S113276013971496EC9014971596FC90159716965B
S11327700C91169717961C910E947434A22F232E45
S1132780342EB52F6B837C838D839E839201A301AA
S1132790B4018A85998501E00E943D3459016A019A
S11327A07B018C012A2F322D432D5B2F6B817C8181
S11327B08D819E810E9474345201630174010A85E3
S11327C019850E947434AF81B8852C9311963C937B
S11327D0119712964C93129713965C931397149631
S11327E06C93149715967C93159716968C9316975D
S11327F017969C939F0128573F4FD9016C901196CF
S11328007C90119712968C90129713969C90139724
S11328101496BC91B987D9011596BC91BD83D90191
S11328201696BC91B983D9011796BC91BE839301C6
S1132830A40169857D8189819B2F04E00E943D3438
S1132840A0ACB1ACC2ACD3ACE4ACF5AC06AD17AD46
S11328500E947434A22F232E342E452E562EB72FC9
S11328608C839F839301A40169857D8189819E81E5
S113287001E00E943D3459016A017B018C012A2F39
S1132880322D432D542D652D7B2F8C819F810E94E9
S1132890743453016401E984FD8009811E810E941E
S11328A0743420AF31AF42AF53AF64AF75AF86AF6E
S11328B097AF9F0120583F4FD9016C9011967C909F
S11328C0119712968C90129713969C9013971496C6
S11328D0BC91B987D9011596BC91BD83D9011696CF
S11328E0BC91B983D9011796BC91BE839301A4010D
S11328F069857D8189819B2F04E00E943D34A0A8D5
S1132900B1A8C2A8D3A8E4A8F5A806A917A90E944B
S11329107434A22F232E342E452E562EB72F8C839B
S11329209F839301A40169857D8189819E8101E052
S11329300E943D3459016A017B018C012A2F322DFA
S1132940432D542D652D7B2F8C819F810E947434DF
S113295053016401E984FD8009811E810E9474345D
S113296020AB31AB42AB53AB64AB75AB86AB97AB2F
S11329709F0128583F4FD9016C9011967C90119774
S113298012968C90129713969C9013971496BC9160
S1132990B987D9011596BC91BD83D9011696BC910E
S11329A0B983D9011796BC91BE839301A4016985AB
S11329B07D8189819B2F04E00E943D34A0A4B1A4B1
S11329C0C2A4D3A4E4A4F5A406A517A50E94743454
S11329D0A22F232E342E452E562EB72F8C839F8361
S11329E09301A40169857D8189819E8101E00E9412
S11329F03D3459016A017B018C012A2F322D432D6C
S1132A00542D652D7B2F8C819F810E94743453013A
S1132A106401E984FD8009811E810E94743420A729
S1132A2031A742A753A764A775A786A797A79F01B5
S1132A3020593F4FD9016C9011967C9011971296B2
S1132A408C90129713969C9013971496BC91B98707
S1132A50D9011596BC91BD83D9011696BC91B98351
S1132A60D9011796BC91BE839301A40169857D8128
S1132A7089819B2F04E00E943D34A0A0B1A0C2A094
S1132A80D3A0E4A0F5A006A117A10E947434A22F3C
S1132A90232E342E452E562EB72F8C839F839301DD
S1132AA0A40169857D8189819E8101E00E943D3474
S1132AB059016A017B018C012A2F322D432D542D9B
S1132AC0652D7B2F8C819F810E9474345301640196
S1132AD0E984FD8009811E810E94743420A331A3FE
S1132AE042A353A364A375A386A397A39F01285964
S1132AF03F4FD9016C9011967C90119712968C904F
S1132B00129713969C9013971496BC91B987D90188
S1132B101596BC91BD83D9011696BC91B983D90190
S1132B201796BC91BE839301A40169857D81898137
S1132B309B2F04E00E943D34A08CB18CC28CD38CBA
S1132B40E48CF58C068D178D0E947434A22F232EED
S1132B50342E452E562EB72F8C839F839301A401C8
S1132B6069857D8189819E8101E00E943D345901FE
S1132B706A017B018C012A2F322D432D542D652DA2
S1132B807B2F8C819F810E94743453016401E984FA
S1132B90FD8009811E810E947434208F318F428F01
S1132BA0538F648F758F868F978F9F01205A3F4F65
S1132BB0D9016C9011967C90119712968C90129773
S1132BC013969C9013971496BC91B987D9011596C6
S1132BD0BC91BD83D9011696BC91B983D9011796CE
S1132BE0BC91BE839301A40169857D8189819B2F5A
S1132BF004E00E943D34A088B188C288D388E48868
S1132C00F588068917890E947434A22F232E342E46
S1132C10452E562EB72F8C839F839301A40169857B
S1132C207D8189819E8101E00E943D3459016A01C0
S1132C307B018C012A2F322D432D542D652D7B2FA2
S1132C408C819F810E94743453016401E984FD8066
S1132C5009811E810E947434208B318B428B538BEB
S1132C60648B758B868B978B9F01285A3F4FD901B4
S1132C706C9011967C90119712968C9012971396E3
S1132C809C9013971496BC91B987D9011596BC9161
S1132C90BD83D9011696BC91B983D9011796BC910D
S1132CA0BE839301A40169857D8189819B2F04E002
S1132CB00E943D34A084B184C284D384E484F58426
S1132CC0068517850E947434A22F232E342E452E98
S1132CD0562EB72F8C839F839301A40169857D8130
S1132CE089819E8101E00E943D3459016A017B0182
S1132CF08C012A2F322D432D542D652D7B2F8C8151
S1132D009F810E94743453016401E984FD80098128
S1132D101E810E94743420873187428753876487D9
S1132D207587868797879F01205B3F4FD9016C90F9
S1132D3011967C90119712968C90129713969C90F2
S1132D4013971496BC91B987D9011596BC91BD838C
S1132D50D9011696BC91B983D9011796BC91BE834B
S1132D609301A40169857D8189819B2F04E00E94E0
S1132D703D34A080B180C280D380E480F580068198
S1132D8017810E947434A22F232E342E452E562EE2
S1132D90B72F8C839F839301A40169857D818981E9
S1132DA09E8101E00E943D3459016A017B018C013E
S1132DB02A2F322D432D542D652D7B2F8C819F81FD
S1132DC00E94743453016401E984FD8009811E81E9
S1132DD00E947434208331834283538364837583D4
S1132DE0868397832A96CDBFDEBFDF91CF911F9153
S1132DF00F91FF90EF90DF90CF90BF90AF909F9096
S1132E008F907F906F905F904F903F902F90089598
S1132E102F923F924F925F926F927F928F929F92E6
S1132E20AF92BF92CF92DF92EF92FF920F931F93D4
S1132E30CF93DF93CDB7DEB76397CDBFDEBF888B6B
S1132E40998BFC01E05BFF4F108211821282138286
S1132E501482158216821782FC01A0E0B0E0C080C3
S1132E60CB8AD180DA8A3280238044805580668080
S1132E7077809601432D522DB201C30100E20E94D6
S1132E80583449015A01BB0C8808982C540196E027
S1132E90B694A794979487949A95D1F78501740171
S1132EA020E030E0A901FA820B831C832D833E834A
S1132EB04F8358872B893A89432D522DB201C30180
S1132EC054016801E12CF12C00E010E00E947434FC
S1132ED00AE10E945634298339874A875D874B016A
S1132EE08E879F870E943D3459016A017B018C01C2
S1132EF02B893A89432D522DB201C3010E947D349E
S1132F0020833183428353836483758386839783C9
S1132F10298139854A855D85B4018E859F85A08484
S1132F20B184C284D384E484F584068517850E9421
S1132F307434298339874A8B5B8B6A877D878E87B4
S1132F409F8700E20E94583449015A01B501A40147
S1132F50770F440B542FBA0137E076956795579550
S1132F6047953A95D1F71A012B01298139854A8968
S1132F705B896A857D858E859F8551016201E12C7F
S1132F80F12C00E010E00E94743409E10E945634F0
S1132F9019012A013B014C010E943D3459016A0187
S1132FA07B018C01298139854A895B896A857D8504
S1132FB08E859F850E947D34208731874287538781
S1132FC0648775878687978712969101A201B3015A
S1132FD0C401A088B188C288D388E488F5880689AA
S1132FE017890E947434208B318B428B538B648BF2
S1132FF0758B868B978B7096AA30B10509F02FCF0D
S1133000E889F989E05BFF4F60807180828093805A
S113301044805580A681AA8BB781BF879301A40100
S1133020B201CD0104E00E943D34A889B989AC9075
S11330301196BC9011971296CC9012971396DC902F
S113304013971496EC9014971596FC901597169672
S11330500C91169717961C910E947434D9014987D4
S11330605A871B018D879E879301A401B2018A8927
S11330709F8501E00E943D3459016A017B018C0166
S11330809D0149855A85B1018D859E850E947434C0
S11330905301640172010A891F850E947434390145
S11330A04A012B01B82FA92F108211821282138298
S11330B0148215821682178200E20E945834590144
S11330C06A01B601A501770F440B542FBA0106E03B
S11330D076956795579547950A95D1F76A017B01CF
S11330E000E010E09801DA82EB82FC820D831E83FB
S11330F02F8338879301A401B2018B2F9A2F560195
S11331006701E12CF12C00E010E00E9474340AE124
S11331100E945634190149835B876D877E878987AE
S11331209A870E943D3459016A017B018C01930105
S1133130A401B2018B2F9A2F0E947D34A889B989EA
S11331402C9311963C93119712964C9312971396C5
S11331505C93139714966C93149715967C93159718
S113316016968C93169717969C93179791014981FD
S11331705B856D857E8589859A851896AC901897B0
S11331801996BC9019971A96CC901A971B96DC90B6
S11331901B971C96EC901C971D96FC901D971E96F1
S11331A00C911E971F961C911F970E9474341896B9
S11331B02C93189719963C9319971A964C931A972F
S11331C01B965C931B971C966C931C971D967C9383
S11331D01D971E968C931E971F969C936396CDBF46
S11331E0DEBFDF91CF911F910F91FF90EF90DF90A1
S11331F0CF90BF90AF909F908F907F906F905F9093
S11332004F903F902F9008950F931F936227732739
S11332108427952760957095809590959B0111273B
S113322000270623172328233923722F612F502FB9
S113323044274023512362237323DB01CA01E4E0C2
S1133240880F991FAA1FBB1FEA95D1F784239523E2
S1133250A623B7238C019D01F2E0000F111F221F4A
S1133260331FFA95D1F7082319232A233B23C901D5
S1133270B801660F771F881F991F6023712382236B
S11332809323990F660B762FCB011F910F9108950D
S11332906F927F928F929F92AF92BF92CF92DF9262
S11332A0EF92FF920F931F933701480100271127D4
S11332B098010619170928093909DC01FB0180E086
S11332C090E08D909D90AD90BC901397408151817A
S11332D062817381482559256A257B254023512322
S11332E06223732384269526A626B7268D929D9263
S11332F0AD92BC921397BB0C8808982C5401149679
S11333008C92149715968C92159716968C92169704
S113331017968C921797189680809180A280B3801C
S113332084269526A626B72680829182A282B3821D
S1133330B501A401770F440B542FBA01448345838C
S113334046834783389601968A30910509F0B9CFB0
S11333501F910F91FF90EF90DF90CF90BF90AF90AF
S11333609F908F907F906F9008952F923F924F92ED
S11333705F926F927F928F929F92AF92BF92CF9201
S1133380DF92EF92FF920F931F93CF93DF93CDB70A
S1133390DEB7C15DD109CDBFDEBFC553DF4F888322
S11333A09983CB5CD040C756DF4F68837983C95972
S11333B0D040DB01ED90FD900D911C91C754DF4F7F
S11333C0E882F9820A831B83C95BD040C801B70134
S11333D0A80197010E94093429833A834B835C83B3
S11333E06D837E838F839887C801B70122E030E024
S11333F040E050E00E940934CF55DF4F2883C15A82
S1133400D040CB54DF4F3883C55BD040CB55DF4F22
S11334104883C55AD040C755DF4F5883C95AD04056
S1133420CF53DF4F6883C15CD040CE53DF4F7883E6
S1133430C25CD040CA53DF4F8883C65CD040C953B6
S1133440DF4F9883C75CD040C756DF4FE881F981CE
S1133450C959D0404084518462847384D301C20129
S1133460BB0F880B982FDC0152016301E82EF82E64
S1133470082F182FCA53DF4F8881C65CD040C95328
S1133480DF4F9881C75CD0400E94B83329873A87C0
S11334904B875C876D877E878F87988BC756DF4FF6
S11334A0A881B981C959D0405096ED90FD900D91F5
S11334B01C915397C354DF4FE882F9820A831B831C
S11334C0CD5BD040C301B201A30192010E94093433
S11334D079018A011B014C01C754DF4F688179814E
S11334E08A819B81C95BD040C354DF4F28813981D5
S11334F04A815B81CD5BD0400E94093459016A0145
S1133500FB01DC019701A801B101C4017F018D0118
S11335100E94743401E00E943D34298B3A8B4B8B1A
S11335205C8B6D8B7E8B8F8B988FC756DF4FA881FA
S1133530B981C959D0405896ED90FD900D911C91D8
S11335405B97C355DF4FE882F9820A831B83CD5A08
S1133550D040C301B201C354DF4F288139814A816D
S11335605B81CD5BD0400E94093419014A017B0183
S11335708C01C754DF4F688179818A819B81C95B43
S1133580D040C355DF4F288139814A815B81CD5AB0
S1133590D0400E94093459016A01FB01DC01910108
S11335A0A401B701C8017F018D010E94743401E0B8
S11335B00E943D34298F3A8F4B8F5C8F6D8F7E8FA5
S11335C08F8F98A3C756DF4FA881B981C959D040BE
S11335D09096ED90FD900D911C919397CF54DF4FF1
S11335E0E882F9820A831B83C15BD040C354DF4F56
S11335F0688179818A819B81CD5BD0409B01AC013C
S11336000E940934922E832E342E252ECD53DF4F63
S11336106883C35CD040CC53DF4F7883C45CD04014
S1133620CB53DF4F8883C55CD040C853DF4F9883AA
S1133630C85CD040C301B20124E030E040E050E077
S11336400E940934C355DF4FE880F9800A811B8149
S1133650CD5AD040110FEE08FE2C8701C356DF4F20
S1133660E882F9820A831B83CD59D040C355DF4FCA
S1133670A880CD5AD040C255DF4FB880CE5AD04032
S1133680C155DF4FC880CF5AD040C055DF4FD880D6
S1133690C05BD040C356DF4FE880CD59D040FE2CEC
S11336A00E2D1E2D0E94B83359016A017B018C0135
S11336B0292D382D432D522DCD53DF4F6881C35C06
S11336C0D040CC53DF4F7881C45CD040CB53DF4F24
S11336D08881C55CD040C853DF4F9881C85CD04016
S11336E00E947434922E832E342E252EC356DF4F1F
S11336F06883CD59D040CD53DF4F7883C35CD0402D
S1133700CC53DF4F8883C45CD040CB53DF4F9883C6
S1133710C55CD040CF54DF4F88819981AA81BB8199
S1133720C15BD040BB0F880B982FDC01CF54DF4F17
S1133730A880C15BD040CE54DF4FB880C25BD0407C
S1133740CD54DF4FC880C35BD040CC54DF4FD8800A
S1133750C45BD040E82EF82E082F182FCF55DF4F2A
S11337602881C15AD040CB54DF4F3881C55BD0404B
S1133770CB55DF4F4881C55AD040C755DF4F5881DC
S1133780C95AD040CF53DF4F6881C15CD040CE537B
S1133790DF4F7881C25CD040CA53DF4F8881C65C5A
S11337A0D040C953DF4F9881C75CD0400E94B833E2
S11337B059016A017B018C01292D382D432D522D8D
S11337C0C356DF4F6881CD59D040CD53DF4F788148
S11337D0C35CD040CC53DF4F8881C45CD040CB5312
S11337E0DF4F9881C55CD0400E94743429A33AA36A
S11337F04BA35CA36DA37EA38FA398A7C756DF4FEB
S1133800A881B981C959D04098968D919D910D9008
S1133810BC91A02DC356DF4F88839983AA83BB83B1
S1133820CD59D040C354DF4F688179818A819B810F
S1133830CD5BD040C355DF4F288139814A815B81FC
S1133840CD5AD0400E94093419014A017B018C01F0
S1133850C301B201CF54DF4F288139814A815B8192
S1133860C15BD0400E94093459016A01FB01DC01AB
S11338709101A401B701C8017F018D010E94743434
S113388019014A017B018C01C754DF4F688179819A
S11338908A819B81C95BD040C356DF4F288139811F
S11338A04A815B81CD59D0400E94093459016A0193
S11338B0FB01DC019101A401B701C8017F018D0165
S11338C00E94743401E00E943D3429A73AA74BA713
S11338D05CA76DA77EA78FA798ABC756DF4FA881BB
S11338E0B981C959D040D096ED90FD900D911C91AD
S11338F0D397CB54DF4FE882F9820A831B83C55BDD
S1133900D040C355DF4F688179818A819B81CD5A2C
S1133910D0409B01AC010E94093419014A017B018A
S11339208C01C354DF4F688179818A819B81CD5B8F
S1133930D040CF54DF4F288139814A815B81C15BFC
S1133940D0400E94093459016A01FB01DC01910154
S1133950A401B701C8017F018D010E9474341901CB
S11339604A017B018C01C754DF4F688179818A81C8
S11339709B81C95BD040CB54DF4F288139814A8178
S11339805B81C55BD0400E94093459016A01FB0187
S1133990DC019101A401B701C8017F018D010E94DE
S11339A07434922E832E342E252ECB55DF4F68830C
S11339B0C55AD040C755DF4F7883C95AD040CF533A
S11339C0DF4F8883C15CD040CE53DF4F9883C25C05
S11339D0D040C301B20122E030E040E050E00E9458
S11339E00934C356DF4FE880F9800A811B81CD5921
S11339F0D040110FEE08FE2C8701CF55DF4FE8822F
S1133A00F9820A831B83C15AD040C356DF4FA88072
S1133A10CD59D040C256DF4FB880CE59D040C156A0
S1133A20DF4FC880CF59D040C056DF4FD880C05A2E
S1133A30D040CF55DF4FE880C15AD040FE2C0E2D28
S1133A401E2D0E94B83359016A017B018C01292D76
S1133A50382D432D522DCB55DF4F6881C55AD040A8
S1133A60C755DF4F7881C95AD040CF53DF4F888183
S1133A70C15CD040CE53DF4F9881C25CD0400E94DD
S1133A80743401E00E943D3429AB3AAB4BAB5CABE0
S1133A906DAB7EAB8FAB98AFC756DF4FA881B981B2
S1133AA0C959D040D8968D919D910D90BC91A02D6F
S1133AB0CB55DF4F88839983AA83BB83C55AD040F3
S1133AC0C355DF4F688179818A819B81CD5AD0406B
S1133AD0CF54DF4F288139814A815B81C15BD0405B
S1133AE00E94093419014A017B018C01C354DF4F40
S1133AF0688179818A819B81CD5BD040C356DF4F39
S1133B00288139814A815B81CD59D0400E94093492
S1133B1059016A01FB01DC019101A401B701C8014B
S1133B207F018D010E94743419014A017B018C01CB
S1133B30C301B201CB54DF4F288139814A815B81B3
S1133B40C55BD0400E94093459016A01FB01DC01C4
S1133B509101A401B701C8017F018D010E94743451
S1133B6019014A017B018C01C754DF4F68817981B7
S1133B708A819B81C95BD040CB55DF4F2881398135
S1133B804A815B81C55AD0400E94093459016A01B7
S1133B90FB01DC019101A401B701C8017F018D0182
S1133BA00E94743401E00E943D3429AF3AAF4BAF18
S1133BB05CAF6DAF7EAF8FAF21969FAF2197C75695
S1133BC0DF4FE881F981C959D040E05CFF4FE080C4
S1133BD0F18002811381C755DF4FE882F9820A839D
S1133BE01B83C95AD040CF54DF4F688179818A81C1
S1133BF09B81C15BD0409B01AC010E940934CF552D
S1133C00DF4F2883C15AD040CF53DF4F3883C15C84
S1133C10D040CE53DF4F4883C25CD040CA53DF4FFD
S1133C205883C65CD040C953DF4F6883C75CD0401B
S1133C30CD53DF4F7883C35CD040CC53DF4F8883B0
S1133C40C45CD040CB53DF4F9883C55CD040C35491
S1133C50DF4F688179818A819B81CD5BD040CB54D1
S1133C60DF4F288139814A815B81C55BD0400E9446
S1133C70093419014A017B018C01C754DF4F688163
S1133C8079818A819B81C95BD040C755DF4F2881E8
S1133C9039814A815B81C95AD0400E940934590153
S1133CA06A01FB01DC019101A401B701C8017F0194
S1133CB08D010E947434C853DF4F2883C85CD04000
S1133CC0C753DF4F3883C95CD040C653DF4F4883A6
S1133CD0CA5CD040C353DF4F5883CD5CD040C2533D
S1133CE0DF4F6883CE5CD040C153DF4F7883CF5C15
S1133CF0D040C053DF4F8883C05DD040CF52DF4FE8
S1133D009883C15DD040C301B201CB55DF4F2881F8
S1133D1039814A815B81C55AD0400E940934190116
S1133D204A017B018C01C355DF4F688179818A8107
S1133D309B81CD5AD040C356DF4F288139814A81B7
S1133D405B81CD59D0400E94093459016A01FB01BD
S1133D50DC019101A401B701C8017F018D010E941A
S1133D60743401E00E943D3459016A017B018C01E5
S1133D70C853DF4F2881C85CD040C753DF4F388118
S1133D80C95CD040C653DF4F4881CA5CD040C3539E
S1133D90DF4F5881CD5CD040C253DF4F6881CE5C89
S1133DA0D040C153DF4F7881CF5CD040C053DF4F48
S1133DB08881C05DD040CF52DF4F9881C15DD04033
S1133DC00E94743401E00E943D3459016A017B0170
S1133DD08C01CF55DF4F2881C15AD040CF53DF4FDC
S1133DE03881C15CD040CE53DF4F4881C25CD040A3
S1133DF0CA53DF4F5881C65CD040C953DF4F688136
S1133E00C75CD040CD53DF4F7881C35CD040CC53E6
S1133E10DF4F8881C45CD040CB53DF4F9881C55CB1
S1133E20D0400E94743422962FAF229723963FAF3E
S1133E30239724964FAF249725965FAF2597269610
S1133E406FAF269727967FAF279728968FAF28972F
S1133E5029969FAF2997C756DF4FE881F981C95941
S1133E60D040E85BFF4F80819181A281B381C75626
S1133E70DF4F88839983AA83BB83C959D040BB0F82
S1133E80880B982FDC01CF55DF4F88839983AA8351
S1133E90BB83C15AD040CF54DF4F688179818A8176
S1133EA09B81C15BD040C356DF4F288139814A8151
S1133EB05B81CD59D0400E94093419014A017B012C
S1133EC08C01C355DF4F688179818A819B81CD5AEA
S1133ED0D040CB54DF4F288139814A815B81C55B57
S1133EE0D0400E94093459016A01FB01DC019101AF
S1133EF0A401B701C8017F018D010E947434190126
S1133F004A017B018C01C354DF4F688179818A8126
S1133F109B81CD5BD040CB55DF4F288139814A81CD
S1133F205B81C55AD0400E94093459016A01FB01E2
S1133F30DC019101A401B701C8017F018D010E9438
S1133F40743419014A017B018C01C301B201C755C4
S1133F50DF4F288139814A815B81C95AD0400E9450
S1133F60093459016A01FB01DC019101A401B70183
S1133F70C8017F018D010E94743419014A017B013B
S1133F808C01C754DF4F688179818A819B81C95B29
S1133F90D040C756DF4F288139814A815B81C95996
S1133FA0D0400E94093459016A01FB01DC019101EE
S1133FB0A401B701C8017F018D010E94743401E09E
S1133FC00E943D342A962FAF2A972B963FAF2B970A
S1133FD02C964FAF2C972D965FAF2D972E966FAFE3
S1133FE02E972F967FAF2F9760968FAF609761962D
S1133FF09FAF6197C356DF4F688179818A819B8126
S1134000CD59D0409B01AC010E94093419014A01E9
S11340107B018C01CF54DF4F688179818A819B8138
S1134020C15BD040CB54DF4F288139814A815B8109
S1134030C55BD0400E94093459016A01FB01DC01CF
S11340409101A401B701C8017F018D010E9474345C
S113405019014A017B018C01C354DF4F68817981C6
S11340608A819B81CD5BD040C755DF4F2881398140
S11340704A815B81C95AD0400E94093459016A01BE
S1134080FB01DC019101A401B701C8017F018D018D
S11340900E947434C754DF4F2883C95BD040CF5388
S11340A0DF4F3883C15CD040CE53DF4F4883C25CBE
S11340B0D040CA53DF4F5883C65CD040C953DF4F4A
S11340C06883C75CD040CD53DF4F7883C35CD04056
S11340D0CC53DF4F8883C45CD040CB53DF4F9883ED
S11340E0C55CD040C355DF4F688179818A819B814B
S11340F0CD5AD040CB55DF4F288139814A815B812D
S1134100C55AD0400E94093419014A017B018C012F
S1134110C301B201C756DF4F288139814A815B81CF
S1134120C959D0400E94093459016A01FB01DC01DC
S11341309101A401B701C8017F018D010E9474346B
S113414001E00E943D3459016A017B018C01C7548E
S1134150DF4F2881C95BD040CF53DF4F3881C15C2A
S1134160D040CE53DF4F4881C25CD040CA53DF4FAA
S11341705881C65CD040C953DF4F6881C75CD040CA
S1134180CD53DF4F7881C35CD040CC53DF4F88815F
S1134190C45CD040CB53DF4F9881C55CD0400E94B3
S11341A0743401E00E943D3462962FAF62976396A7
S11341B03FAF639764964FAF649765965FAF65971B
S11341C066966FAF669767967FAF679768968FAF6F
S11341D0689769969FAF6997C356DF4F6881798165
S11341E08A819B81CD59D040CB54DF4F28813981BE
S11341F04A815B81C55BD0400E94093439014A0180
S11342007B018C01CF54DF4F688179818A819B8146
S1134210C15BD040CB55DF4F288139814A815B8116
S1134220C55AD0400E94093459016A01FB01DC01DE
S11342309301A401B701C8017F018D010E94743468
S113424039014A017B018C01C355DF4F68817981B3
S11342508A819B81CD5AD040C755DF4F288139814F
S11342604A815B81C95AD0400E94093459016A01CC
S1134270FB01DC019301A401B701C8017F018D0199
S11342800E94743439014A017B018C01C354DF4F0D
S1134290688179818A819B81CD5BD040C756DF4F8D
S11342A0288139814A815B81C959D0400E940934EF
S11342B059016A01FB01DC019301A401B701C801A2
S11342C07F018D010E94743401E00E943D346A969E
S11342D02FAF6A976B963FAF6B976C964FAF6C9707
S11342E06D965FAF6D976E966FAF6E976F967FAF5B
S11342F06F97A0968FAFA097A1969FAFA197CB542D
S1134300DF4F688179818A819B81C55BD0409B01A5
S1134310AC010E940934C354DF4F2883CD5BD040E5
S1134320C754DF4F3883C95BD040CF53DF4F488336
S1134330C15CD040CE53DF4F5883C25CD040CA53D7
S1134340DF4F6883C65CD040C953DF4F7883C75CB6
S1134350D040CD53DF4F8883C35CD040CC53DF4F74
S11343609883C45CD040CF54DF4F688179818A81BF
S11343709B81C15BD040C755DF4F288139814A8179
S11343805B81C95AD0400E940934522E432E342EE8
S1134390252ECB53DF4F6883C55CD040C853DF4F15
S11343A07883C85CD040C753DF4F8883C95CD04052
S11343B0C653DF4F9883CA5CD040C356DF4F688131
S11343C079818A819B81CD59D040CB55DF4F28819B
S11343D039814A815B81C55AD0400E940934390130
S11343E04A017B018C01C355DF4F688179818A8141
S11343F09B81CD5AD040C756DF4F288139814A81ED
S11344005B81C959D0400E94093459016A01FB01FA
S1134410DC019301A401B701C8017F018D010E9451
S1134420743401E00E943D3459016A017B018C011E
S1134430252D342D432D522DCB53DF4F6881C55C80
S1134440D040C853DF4F7881C85CD040C753DF4F9A
S11344508881C95CD040C653DF4F9881CA5CD04084
S11344600E94743401E00E943D3459016A017B01C9
S11344708C01C354DF4F2881CD5BD040C754DF4F3C
S11344803881C95BD040CF53DF4F4881C15CD040F5
S1134490CE53DF4F5881C25CD040CA53DF4F68818E
S11344A0C65CD040C953DF4F7881C75CD040CD5340
S11344B0DF4F8881C35CD040CC53DF4F9881C45C0C
S11344C0D0400E947434A2962FAFA297A3963FAF18
S11344D0A397A4964FAFA497A5965FAFA597A6966A
S11344E06FAFA697A7967FAFA797A8968FAFA89709
S11344F0A9969FAFA997CB54DF4F688179818A81B0
S11345009B81C55BD040CB55DF4F288139814A81DF
S11345105B81C55AD0400E94093439014A017B01AC
S11345208C01C356DF4F688179818A819B81CD5983
S1134530D040C755DF4F288139814A815B81C95AF0
S1134540D0400E94093459016A01FB01DC01930146
S1134550A401B701C8017F018D010E94743439019F
S11345604A017B018C01CF54DF4F688179818A81B4
S11345709B81C15BD040C756DF4F288139814A8176
S11345805B81C959D0400E94093459016A01FB0179
S1134590DC019301A401B701C8017F018D010E94D0
S11345A0743401E00E943D34AA962FAFAA97AB96CB
S11345B03FAFAB97AC964FAFAC97AD965FAFAD97AF
S11345C0AE966FAFAE97AF967FAFAF97E0968FAFD3
S11345D0E097E1969FAFE197CB55DF4F68817981F2
S11345E08A819B81C55AD0409B01AC010E94093449
S11345F039014A017B018C01CB54DF4F68817981F9
S11346008A819B81C55BD040C755DF4F28813981A2
S11346104A815B81C95AD0400E94093459016A0118
S1134620FB01DC019301A401B701C8017F018D01E5
S11346300E947434922E832E742E652E562E472E8D
S1134640382E292EC356DF4F688179818A819B8158
S1134650CD59D04022E030E040E050E00E940934DF
S1134660C756DF4FA880C959D040C656DF4FB8801F
S1134670CA59D040C556DF4FC880CB59D040C45624
S1134680DF4FD880CC59D040CF55DF4FE880C15A96
S1134690D040FE2C0E2D1E2D0E94B83359016A0104
S11346A07B018C01292D382D472D562D652D742D18
S11346B0832D922D0E94743401E00E943D34E296D1
S11346C02FAFE297E3963FAFE397E4964FAFE497BB
S11346D0E5965FAFE597E6966FAFE697E7967FAF0F
S11346E0E797E8968FAFE897E9969FAFE997CB55A0
S11346F0DF4F688179818A819B81C55AD040C75533
S1134700DF4F288139814A815B81C95AD0400E9498
S1134710093439014A017B018C01CB54DF4F688194
S113472079818A819B81C55BD040C756DF4F288140
S113473039814A815B81C959D0400E9409345901A9
S11347406A01FB01DC019301A401B701C8017F01E7
S11347508D010E94743401E00E943D34EA962FAF2B
S1134760EA97EB963FAFEB97EC964FAFEC97ED964D
S11347705FAFED97EE966FAFEE97EF967FAFEF9743
S1134780C158DF4F8883CF57D040C058DF4F98833C
S1134790C058D040C755DF4F688179818A819B8199
S11347A0C95AD0409B01AC010E940934722E632E79
S11347B0542E452E962E872E382E292ECB55DF4F7C
S11347C0688179818A819B81C55AD04024E030E098
S11347D040E050E00E940934C756DF4FA880C95911
S11347E0D040C656DF4FB880CA59D040C556DF4FB7
S11347F0C880CB59D040C456DF4FD880CC59D04064
S1134800CF55DF4FE880C15AD040FE2C0E2D1E2D0F
S11348100E94B83359016A017B018C01272D362D82
S1134820452D542D692D782D832D922D0E9474349D
S1134830CF57DF4F2883C158D040CE57DF4F38833E
S1134840C258D040CD57DF4F4883C358D040CC57CF
S1134850DF4F5883C458D040CB57DF4F6883C558C7
S1134860D040CA57DF4F7883C658D040C957DF4F6E
S11348708883C758D040C857DF4F9883C858D04062
S1134880C755DF4F688179818A819B81C95AD0409D
S113489022E030E040E050E00E940934C756DF4F88
S11348A0A880C959D040C656DF4FB880CA59D040F5
S11348B0C556DF4FC880CB59D040C456DF4FD8808F
S11348C0CC59D040CF55DF4FE880C15AD040FE2CA0
S11348D00E2D1E2D0E94B833C757DF4F2883C958A9
S11348E0D040C657DF4F3883CA58D040C557DF4F32
S11348F04883CB58D040C457DF4F5883CC58D0405E
S1134900C357DF4F6883CD58D040C257DF4F7883F9
S1134910CE58D040C157DF4F8883CF58D040C057BE
S1134920DF4F9883C059D040C756DF4F68817981E3
S11349308A819B81C959D0409B01AC010E940934F2
S113494001E00E943D34CF56DF4F2883C159D04047
S1134950CE56DF4F3883C259D040CD56DF4F4883FF
S1134960C359D040CC56DF4F5883C459D040CB569E
S1134970DF4F6883C559D040CA56DF4F7883C65984
S1134980D040C956DF4F8883C759D040C856DF4F3F
S11349909883C859D040CE0101960E946A13CE0173
S11349A001960E94081780E5FE013196C553DF4F3A
S11349B0A881B981CB5CD04001900D928A95E1F732
S11349C0CF52DF4FCDBFDEBFDF91CF911F910F914B
S11349D0FF90EF90DF90CF90BF90AF909F908F901B
S11349E07F906F905F904F903F902F9008950F931A
S11349F01F93CF93DF93CDB7DEB7C859D109CDBF8D
S1134A00DEBF8C01CE0101960E94D901CE01019630
S1134A100E946A13CE0101960E94081780E5FE01E8
S1134A203196D80101900D928A95E1F7C856DF4F6F
S1134A30CDBFDEBFDF91CF911F910F9108952F92CB
S1134A403F924F925F926F927F928F929F92AF921A
S1134A50BF92CF92DF92EF92FF920F931F93CF9367
S1134A60DF93CDB7DEB7C052DA40CDBFDEBF1C0145
S1134A70FA01CB01BE016752764FC750D64F688307
S1134A807983C95FD9409B01205E3F4F7B01DC01E4
S1134A904D91CD01DB014D93BD01A217B307B9F7C9
S1134AA0D7018C91887F8C935F968C915F978F77D9
S1134AB080645F968C939380218130E040E050E0E5
S1134AC060E070E080E090E008E00E943D34B22FA6
S1134AD0D32E142FA52F228130E040E050E060E077
S1134AE070E080E090E000E10E943D34B22BD32AD4
S1134AF0142BA52B8081B82B292D30E040E050E009
S1134B0060E070E080E090E008E10E943D34B22B68
S1134B10D32A142BA52BC757D64FB883C958D940CD
S1134B20C657D64FD882CA58D940C557D64F1883CE
S1134B30CB58D940A370C457D64FA883CC58D9407A
S1134B40C357D64F1882CD58D940C257D64F188272
S1134B50CE58D940C157D64F1882CF58D940C057E4
S1134B60D64F1882C059D940A680248130E040E055
S1134B7050E060E070E080E090E008E00E943D34A6
S1134B80A22FB32E6A01162FB72F782E892E2581D6
S1134B9030E040E050E060E070E080E090E000E170
S1134BA00E943D34A22BB32AC42AD52A162BB72B34
S1134BB0782A892AA9292A2D30E040E050E060E0D3
S1134BC070E080E090E008E10E943D34A22BB32A1B
S1134BD0C42AD52A162BB72B2A2F3B2DA601612FC9
S1134BE07B2F8729982902E00E945634CF56D64F4E
S1134BF02883C159D940CE56D64F3883C259D9409B
S1134C00CD56D64F4883C359D9405170CC56D64F50
S1134C105883C459D940CB56D64F1882C559D94068
S1134C20CA56D64F1882C659D940C956D64F18828B
S1134C30C759D940C856D64F1882C859D94091840B
S1134C40278130E040E050E060E070E080E090E0F8
S1134C5008E00E943D34A22FB32E6A01162FB72F0D
S1134C60782E892E208530E040E050E060E070E04E
S1134C7080E090E000E10E943D34A22BB32AC42AD4
S1134C80D52A162BB72B782A892AAA29292D30E070
S1134C9040E050E060E070E080E090E008E10E94D5
S1134CA03D34A22BB32AC42AD52A162BB72B2A2F7C
S1134CB03B2DA601612F7B2F8729982903E00E94B1
S1134CC05634C756D64F2883C959D940C656D64FED
S1134CD03883CA59D940C556D64F4883CB59D94091
S1134CE05370C456D64F5883CC59D940C356D64F67
S1134CF01882CD59D940C256D64F1882CE59D940C0
S1134D00C156D64F1882CF59D940C056D64F1882B3
S1134D10C05AD940A484228530E040E050E060E0ED
S1134D2070E080E090E008E00E943D34A22FB32EB2
S1134D306A01162FB72F782E892E238530E040E0A4
S1134D4050E060E070E080E090E000E10E943D34DB
S1134D50A22BB32AC42AD52A162BB72B782A892A40
S1134D60A9292A2D30E040E050E060E070E080E0C6
S1134D7090E008E10E943D34A22BB32AC42AD52A2C
S1134D80162BB72B2A2F3B2DA601612F7B2F8729AA
S1134D90982905E00E945634CF55D64F2883C15A2E
S1134DA0D940CE55D64F3883C25AD940CD55D64F67
S1134DB04883C35AD9405170CC55D64F5883C45AEE
S1134DC0D940CB55D64F1882C55AD940CA55D64F6B
S1134DD01882C65AD940C955D64F1882C75AD940E5
S1134DE0C855D64F1882C85AD940258530E040E0CE
S1134DF050E060E070E080E090E008E00E943D3424
S1134E00A22FB32E6A01162FB72F4C01268530E04E
S1134E1040E050E060E070E080E090E000E10E945B
S1134E203D34A22BB32AC42AD52A162BB72B882AA1
S1134E30992AAA29278530E040E050E060E070E03C
S1134E4080E090E008E10E943D34A22BB32AC42AFA
S1134E50D52A162BB72B2A2F3B2DA601612F7B2F8A
S1134E608829992906E00E945634C755D64F2883CD
S1134E70C95AD940C655D64F3883CA5AD940C555A0
S1134E80D64F4883CB5AD940C455D64F5883CC5AB1
S1134E90D940C355D64F6883CD5AD940C255D64F51
S1134EA07883CE5AD940C155D64F8883CF5AD9403A
S1134EB0C055D64F9883C05BD9409388218930E090
S1134EC040E050E060E070E080E090E008E00E94A4
S1134ED03D34B22FD32E142FA52F228930E040E089
S1134EE050E060E070E080E090E000E10E943D343A
S1134EF0B22BD32A142BA52B8089B82B292D30E073
S1134F0040E050E060E070E080E090E008E10E9462
S1134F103D34B22BD32A142BA52BCF54D64FB883B0
S1134F20C15BD940CE54D64FD882C25BD940CD5450
S1134F30D64F1883C35BD940A170CC54D64FA883F5
S1134F40C45BD940CB54D64F1882C55BD940CA54F0
S1134F50D64F1882C65BD940C954D64F1882C75B56
S1134F60D940C854D64F1882C85BD940A688248932
S1134F7030E040E050E060E070E080E090E008E085
S1134F800E943D34A22FB32E6A01162FB72F782E1C
S1134F90892E258930E040E050E060E070E080E058
S1134FA090E000E10E943D34A22BB32AC42AD52A02
S1134FB0162BB72B782A892AA9292A2D30E040E01C
S1134FC050E060E070E080E090E008E10E943D3451
S1134FD0A22BB32AC42AD52A162BB72B2A2F3B2D52
S1134FE0A601612F7B2F8729982901E00E9456345E
S1134FF0C754D64F2883C95BD940C654D64F38838B
S1135000CA5BD940C554D64F4883CB5BD940537053
S1135010C454D64F5883CC5BD940C354D64F18825E
S1135020CD5BD940C254D64F1882CE5BD940C1540F
S1135030D64F1882CF5BD940C054D64F1882C05C7B
S1135040D940918C278930E040E050E060E070E086
S113505080E090E008E00E943D34A22FB32E6A0164
S1135060162FB72F782E892E208D30E040E050E0A7
S113507060E070E080E090E000E10E943D34A22B0B
S1135080B32AC42AD52A162BB72B782A892AAA2907
S1135090292D30E040E050E060E070E080E090E0F6
S11350A008E10E943D34A22BB32AC42AD52A162B28
S11350B0B72B2A2F3B2DA601612F7B2F87299829F7
S11350C003E00E945634CF53D64F2883C15CD940A5
S11350D0CE53D64F3883C25CD940CD53D64F488384
S11350E0C35CD9405170CC53D64F5883C45CD9406B
S11350F0CB53D64F1882C55CD940CA53D64F1882B9
S1135100C65CD940C953D64F1882C75CD940C8532E
S1135110D64F1882C85CD940A48C228D30E040E080
S113512050E060E070E080E090E008E00E943D34F0
S1135130A22FB32E6A01162FB72F782E892E238D16
S113514030E040E050E060E070E080E090E000E1BA
S11351500E943D34A22BB32AC42AD52A162BB72B7E
S1135160782A892AA9292A2D30E040E050E060E01D
S113517070E080E090E008E10E943D34A22BB32A65
S1135180C42AD52A162BB72B2A2F3B2DA601612F13
S11351907B2F8729982904E00E945634C753D64FA1
S11351A02883C95CD940C653D64F3883CA5CD940DA
S11351B0C553D64F4883CB5CD9405370C453D64FA4
S11351C05883CC5CD940C353D64F1882CD5CD940A8
S11351D0C253D64F1882CE5CD940C153D64F1882E1
S11351E0CF5CD940C053D64F1882C05DD940258DBD
S11351F030E040E050E060E070E080E090E008E003
S11352000E943D34A22FB32E6A01162FB72F4C01F2
S1135210268D30E040E050E060E070E080E090E017
S113522000E10E943D34A22BB32AC42AD52A162BAE
S1135230B72B882A992AAA29278D30E040E050E02C
S113524060E070E080E090E008E10E943D34A22B31
S1135250B32AC42AD52A162BB72B2A2F3B2DA601F5
S1135260612F7B2F8829992906E00E945634CF525A
S1135270D64F2883C15DD940CE52D64F3883C25D04
S1135280D940CD52D64F4883C35DD9405170CC52DA
S1135290D64F5883C45DD940CB52D64F1882C55DD2
S11352A0D940CA52D64F1882C65DD940C952D64F8A
S11352B01882C75DD940C852D64F1882C85DD940FC
S11352C08E010F5A174FE8E9D801FE2F1D92FA9567
S11352D0E9F7CE018754984FDC01FE2F1D92FA9511
S11352E0E9F7F1E0DC01FC9311961C9211971296F8
S11352F01C92129713961C92139714961C9214974F
S113530015961C92159716961C92169717961C9232
S11353109E012F5D384FD9014E2F1D924A95E9F712
S1135320D901FC9311961C92119712961C92129714
S113533013961C92139714961C92149715961C920C
S1135340159716961C92169717961C924E01B7E75E
S11353508B1AB9EF9B0AD4014E2F1D924A95E9F797
S11353606E016FE0C61A6AEFD60AD6014E2F1D925F
S11353704A95E9F7AE01475A5A4FDA016E2F1D924A
S11353806A95E9F7DA01FC9311961C92119712962B
S11353901C92129713961C92139714961C921497AE
S11353A015961C92159716961C92169717961C9292
S11353B05E01BFE3AB1ABBEFBB0AD5016E2F1D9292
S11353C06A95E9F7BE01675D7B4FDB011D92EA95A3
S11353D0E9F7DB01FC9311961C92119712961C922B
S11353E0129713961C92139714961C921497159661
S11353F01C92159716961C92169717961C92E0E528
S11354007E2EFE01E757F64FD80101900D927A9453
S1135410E1F7F701B096C05FD54FE883F983C05137
S1135420DA40C150D64F6883CF5FD940CD5FD54FA6
S11354307883C350DA405A2C4B2CC95FD54F48832C
S1135440C750DA40C85FD54F5883C850DA40C75FA9
S1135450D54FC882C950DA40C65FD54FD882CA50EA
S1135460DA40C25FD54F8883CE50DA40C15FD54F52
S11354709883CF50DA40C45FD54F0883CC50DA40CC
S1135480C35FD54F1883CD50DA403901C05FD54F83
S1135490A881B981C051DA40EE91C05FD54FA8838D
S11354A0B983C051DA40C65ED54FE883CA51DA40A9
S11354B0C95FD54F9881C750DA40C85FD54F8881FE
S11354C0C850DA40C25FD54FF881CE50DA40C95F88
S11354D0D54FF883C750DA40C15FD54F2881CF50EC
S11354E0DA40C85FD54F2883C850DA40C25FD54F31
S11354F09883CE50DA40C15FD54F8883CF50DA40CD
S1135500C150D64F9881CF5FD940CD5FD54F8881A8
S1135510C350DA40C150D64F8882CF5FD940CD5FA7
S1135520D54F9882C350DA40892E982EC75FD54F45
S11355309881C950DA40C65FD54F8881CA50DA4095
S1135540C45FD54F3881CC50DA40C75FD54F38831C
S1135550C950DA40C35FD54F4881CD50DA40C65FA9
S1135560D54F4883CA50DA40C45FD54F9883CC5096
S1135570DA40C35FD54F8883CD50DA40C201562C40
S1135580472C692E782E88E090E0C55ED54F88833D
S11355909983CB51DA40DE01AF51BC4FC550D64F91
S11355A0A883B983CB5FD940FE01EF54FD4FC350AC
S11355B0D64FE883F983CD5FD940C65ED54FF881D5
S11355C0CA51DA40FF1FFF27FF1FCE5ED54FF88375
S11355D0C251DA40EF2EF12C00E010E020E030E080
S11355E040E050E0C75FD54F6881C950DA40C65FDC
S11355F0D54F7881CA50DA40852D942D0E944819E0
S1135600CE5ED54FE880C251DA4020E030E040E081
S113561050E0C95FD54F6881C750DA40C85FD54FA5
S11356207881C850DA40C150D64F8881CF5FD940C5
S1135630CD5FD54F9881C350DA400E944819E52DBB
S1135640F42DDE01A75CB64F80E501900D928A959A
S1135650E1F7C150D64F6881CF5FD940CD5FD54FB8
S11356607881C350DA40852D942D0E942001BE011B
S1135670675C764FC150D64F8881CF5FD940CD5FEC
S1135680D54F9881C350DA400E949201C75FD54F2D
S1135690E881C950DA40C65FD54FF881CA50DA4074
S11356A0DE01A751B74F80E501900D928A95E1F78D
S11356B0C95FD54F6881C750DA40C85FD54F78813C
S11356C0C850DA40C75FD54F8881C950DA40C65FF9
S11356D0D54F9881CA50DA400E942001BE0167511B
S11356E0774FC95FD54F8881C750DA40C85FD54F1F
S11356F09881C850DA400E949201C150D64F488127
S1135700CF5FD940CD5FD54F5881C350DA40C75FD2
S1135710D54F6881C950DA40C65FD54F7881CA50E9
S1135720DA40CE0187539E4F0E94D901C95FD54FFD
S11357304881C750DA40C85FD54F5881C850DA4015
S1135740652D742DCE018F5C9E4F0E94D901CE0130
S113575087539E4F0E946A13CE0187539E4F0E9427
S11357600817CE018F5C9E4F0E946A13CE018F5C96
S11357709E4F0E940817FE01E753FE4FDE01A7511A
S1135780B74F80E501900D928A95E1F7BE016F5CF9
S11357907E4FCE0187539E4F0E942001BE01675168
S11357A0774FCE018F5C9E4F0E949201BE016753DA
S11357B07E4FCE0101960E94B519BE016F5C7E4FEB
S11357C0CE0187569F4F0E94B519AE014757564FD9
S11357D0BE0167567F4FCE018F5C9E4F0E94D90158
S11357E0CE018F5C9E4F0E946A13CE018F5C9E4F48
S11357F00E940817FE013196C45FD54FA881CC5092
S1135800DA40C35FD54FB881CD50DA4080E50190CE
S11358100D928A95E1F7FE01EF5CFE4FC25FD54F12
S1135820A881CE50DA40C15FD54FB881CF50DA405D
S113583080E501900D928A95E1F7652D742DCE01D6
S113584087509D4F0E94B519C150D64F6881CF5FD4
S1135850D940CD5FD54F7881C350DA40CE018F59FE
S11358609D4F0E94B519AE014F595D4FBE0167505F
S11358707D4FC3010E94D901C3010E946A13C30171
S11358800E940817BE0167507D4FCE018F599D4F6E
S11358900E94920188E4C550D64FA881B981CB5F9C
S11358A0D9401D928A95E9F7DE01AF59BD4FFE013B
S11358B0EF56FC4F2C91C55FD54F2883CB50DA406F
S11358C011963C911197CD5ED54F3883C351DA4080
S11358D012964C911297CC5ED54F4883C451DA404E
S11358E013966C911397CB5ED54F6883C551DA40FC
S11358F014968C911497CA5ED54F8883C651DA40AA
S113590015969C911597C95ED54F9883C751DA4077
S113591016962C911697C85ED54F2883C851DA4045
S113592017963C911797C75ED54F3883C951DA4013
S11359301896C55FD54F2881CB50DA40CD5ED54F40
S11359403881C351DA40562FBC01C85ED54F8881D7
S1135950C851DA40C75ED54F9881C951DA4007E093
S11359608CD7C55FD54FA880CB50DA40CD5ED54FDC
S1135970B880C351DA40CC5ED54FC880C451DA40F8
S1135980CB5ED54FD880C551DA40CA5ED54FE8808A
S1135990C651DA40C95ED54FF880C751DA40C85EB7
S11359A0D54F0881C851DA40C75ED54F1881C95117
S11359B0DA40A3D702E061D7C85ED54F0881C85149
S11359C0DA409BD704E059D7C85ED54F0881C85147
S11359D0DA4093D759016A017B01C55FD54F8883AB
S11359E0CB50DA40192F04E048D7C55FD54F088162
S11359F0CB50DA4082D7208331834283538364833C
S1135A007583868397833896C350D64F888199814E
S1135A10CD5FD940A817B90709F04CCFCE018F56F6
S1135A209C4F0E940817BE0167507D4FCE018F56D0
S1135A309C4F0E942001AE014F565C4FBE016F592E
S1135A407D4FC4010E94D901C4010E946A13C4019C
S1135A500E940817CE5ED54FE880C251DA40F12C7F
S1135A6000E010E020E030E040E050E0C45FD54FBB
S1135A706881CC50DA40C35FD54F7881CD50DA408D
S1135A80C3010E944819CE5ED54FE880C251DA4066
S1135A9020E030E040E050E0C25FD54F6881CE5056
S1135AA0DA40C15FD54F7881CF50DA40C4010E94FB
S1135AB04819C65ED54F9881CA51DA40990FC65E1F
S1135AC0D54F9883CA51DA40C55ED54FA881B981B4
S1135AD0CB51DA401197C55ED54FA883B983CB511A
S1135AE0DA40AB2B09F46CC0C95FD54F9881C7501D
S1135AF0DA40C85FD54F8881C850DA40C25FD54FBD
S1135B00B881CE50DA40C95FD54FB883C750DA4068
S1135B10C15FD54FE881CF50DA40C85FD54FE883E5
S1135B20C850DA40C25FD54F9883CE50DA40C15F87
S1135B30D54F8883CF50DA40C150D64F9881CF5F7C
S1135B40D940CD5FD54F8881C350DA40C150D64F7C
S1135B508882CF5FD940CD5FD54F9882C350DA4059
S1135B60892E982EC75FD54F9881C950DA40C65FF9
S1135B70D54F8881CA50DA40C45FD54FF881CC50E4
S1135B80DA40C75FD54FF883C950DA40C35FD54FB9
S1135B902881CD50DA40C65FD54F2883CA50DA40F9
S1135BA0C45FD54F9883CC50DA40C35FD54F888308
S1135BB0CD50DA40C201562C472C692E782EFDCCEC
S1135BC0C05FD54F88819981C051DA40C750D64F04
S1135BD0A881B981C95FD9408A179B0709F056CCBF
S1135BE080E5F301DE01A751B74F01900D928A952C
S1135BF0E1F780E5F401DE01119601900D928A959A
S1135C00E1F7BE016F5F7F4FCE018F509A4F0E9424
S1135C10B519BE016F507A4FCE0187569F4F0E942F
S1135C20B519BE0167567F4FCE018F5C9E4F0E940F
S1135C30B519AE014F5F5F4FBE016F5C7E4FCE0161
S1135C40875A9A4F0E94F724AE014F505A4FBE0113
S1135C50675A7A4FCE018F539B4F0E94F724BE019F
S1135C606F537B4FCE018F5C9E4F0E94B519AE01DE
S1135C70475A5A4FBE016F5C7E4FCE01875D9B4FE2
S1135C800E94F724BE01675D7B4FCE018F5C9E4F5F
S1135C900E94B519BE016F5C7E4FCE0187569F4F9F
S1135CA00E94B519BE0167567F4FCE018F5C9E4F8F
S1135CB00E94B519BE016F5C7E4FCE0187569F4F7F
S1135CC00E94B519BE0167567F4FCE018F5C9E4F6F
S1135CD00E94B519AE01475D5B4FBE016F5C7E4FFC
S1135CE0CE018F569C4F0E94F724BE016F567C4F05
